:020000040800F2
:10000000B009002035020008EB3D00081B3B00084A
:10001000E93D0008352700083143000800000000D2
:10002000000000000000000000000000EF3D00089C
:100030003727000800000000ED3D0008F13D0008F2
:100040004F0200084F0200084F0200084F0200084C
:100050004F0200084F0200084F0200084F0200083C
:100060004F0200084F0200084F0200084F0200082C
:100070004F0200084F0200084F0200084F0200081C
:100080004F0200084F0200084F0200084F0200080C
:100090004F0200084F0200084F0200084F020008FC
:1000A0004F0200084F0200084F0200084F020008EC
:1000B0004F0200084F0200084F0200084F020008DC
:1000C0004F0200084F0200084F0200084F020008CC
:1000D0004F02000819430008254300084F0200089A
:1000E0004F0200084F0200084F02000800F002F81B
:1000F00000F090F80AA090E8000C82448344AAF132
:100100000107DA4501D100F085F8AFF2090EBAE82F
:100110000F0013F0010F18BFFB1A43F0010318473B
:10012000205C0000405C0000103A24BF78C878C111
:10013000FAD8520724BF30C830C144BF04680C60ED
:10014000704700000023002400250026103A28BF35
:1001500078C1FBD8520728BF30C148BF0B60704739
:100160006E2900F08981702900F0D382662905F09C
:100170008D84652905F08A84672905F087846129C3
:1001800005F0868403681B0A28BF41F080016929B5
:1001900000F03681642900F03381752900F0308148
:1001A0006F2900F06082782900F09F82E92900F031
:1001B000FB81E42900F0F881F52900F0F581EF29B1
:1001C00000F05D82F82900F09E820368DB0928BFF9
:1001D00041F08001632900F0AD87732900F0B287F8
:1001E000E32900F0BD87F32900F0C28700207047A3
:1001F0001FB501F061F804000020002104F0B0FFF9
:10020000401C60600020002104F094FFE0601FBDEE
:1002100010B510BD01F022F81146FFF7E9FF04F018
:10022000EBFB01F033F903B4FFF7F2FF03BC01F07D
:10023000FBFB00000948804709480047FEE7FEE74E
:10024000FEE7FEE7FEE7FEE7FEE7FEE7FEE7FEE786
:1002500004480549054A064B70470000533E000814
:10026000ED000008B0030020B0090020B005002018
:10027000B00500207CB51D4616460C00009001D04C
:100280002044401E074B7B442A4669460190304675
:1002900000F00BF905461CB10020694600F018F982
:1002A00028467CBD5102000010B5431C02E010F846
:1002B000011B71B18107FAD14FF0013202C88C1ACB
:1002C0008C4314EAC211F9D0C01A0A0603D0C01E2A
:1002D00010BDC01A10BD0A0401D0801E10BD090255
:1002E000FCD0401E10BD4FF0000200B513469446EE
:1002F0009646203922BFA0E80C50A0E80C50B1F17E
:100300002001BFF4F7AF090728BFA0E80C5048BF91
:100310000CC05DF804EB890028BF40F8042B08BF2F
:10032000704748BF20F8022B11F0804F18BF00F82B
:10033000012B704770477047704770B50446856958
:100340000068C10601D5302600E02026C00707D08E
:1003500070BDD4E9012130469047206A401C2062DC
:100360006D1EF6D570BD70B5044685690078C0076E
:1003700007D170BDD4E9012120209047206A401C9C
:1003800020626D1EF6D570BD09684A0501D540B2E0
:100390007047C905FCD500B2704709684A0501D508
:1003A000C0B27047C905FCD580B2704770B50C4625
:1003B0000546012A05D02878800600D5EA69002381
:1003C00002E0012305E05B1C934202D2E05C0028BE
:1003D000F9D1A869E618C01AA861286A18442862E9
:1003E0002846FFF7AAFF04E0D5E9012114F8010B24
:1003F0009047B442F8D32846FFF7B5FF70BD000020
:100400002DE9F0410646002410687529314616A5ED
:1004100010D0FFF7B9FF002802DA404213A507E029
:1004200031688A0701D512A502E0490704D511A554
:10043000012401E0FFF7B1FF00210A2206F12407A1
:1004400009E0B0FBF2FCB0FBF2F302FB1C00303021
:1004500078541846491C0028F3D123462A463046D2
:10046000BDE8F04100F076BA000000002D00000069
:100470002B0000002000000011680268006A53058C
:1004800001D508700AE0D30501D5088006E01306FF
:1004900003D5C217C1E9000200E0086001207047DF
:1004A00001694A1C02610878704700B58FB0CDE938
:1004B00001310021059105497944CDE90310114628
:1004C000684600F031F90FB000BD0000E5FFFFFF06
:1004D0000A6802F8010B0A607047D1E900239A42CA
:1004E00002D2531C0B601070704700002DE9FF5FB3
:1004F00015468A460446DFF8AC80F8440027D8E960
:1005000000103E46CDE9001010E03AF816106A4699
:1005100002A800F083FE411C07D02178890603D58C
:10052000E269391891420DD80744761C207880067C
:1005300002D5E069B84205DDAE42E6DB3AF81600C6
:100540000028E2D1A069C01BA0612046FFF7F5FE9C
:10055000D8E90010CDE90010002017E03AF8181093
:100560006A4602A800F05AFEB0F1FF3F81460BD068
:1005700000250DF1080B05E0D4E901211BF8050069
:1005800090476D1C4D45F7D308F10100B0428046FD
:10059000E4DB206A384420622046FFF7E4FEBDE831
:1005A000FF9F0000465700002DE9F0418046D21D14
:1005B00022F007020025D2E90002F52915A614D081
:1005C000011E72F1000106DA0023D0EB030063EB99
:1005D000020211A608E0D8F800108B0701D50FA67B
:1005E00002E0490701D50EA601251146002408F1B5
:1005F000240704E000F069F930323A55641C50EAEF
:100600000102F7D12B46324621464046BDE8F04173
:1006100000F0A0B9000000002D0000002B00000039
:100620002000000030B4002100F1240408E002F0B2
:100630000705D208303542EA4372DB086554491C8D
:1006400052EA0305F3D10468002310A2250707D559
:10065000A40600D421B1C46901230DA2641EC461A3
:1006600030BC00F077B910B5044621461068FFF79A
:1006700094FE02462046BDE810400023D2E7D21D7A
:1006800022F00701D1E90023CCE7000000000000C0
:1006900030000000F0B40D460188090502D5214C58
:1006A0007C4402E01F4C7C440E34002100F12406FF
:1006B00008E002F00F071209E75D42EA03721B0926
:1006C0007754491C52EA0307F3D10278002312073A
:1006D00004D5702D06D009B1022311342246F0BC96
:1006E00000F038B901231034F8E770B504460D4620
:1006F00021461068FFF751FE024629462046BDE814
:1007000070400023C6E7D21D22F00703D3E900237F
:10071000C0E70368126843F0200303600823C36145
:100720000023B7E7A85500002DE9F05F894604468D
:100730004FF0000ADFF874B1FB44C0F820A0204657
:10074000E1688847002874D0252806D0D4E9012123
:100750009047206A401C2062F1E700265F46204651
:10076000E16888472028054607DB312D05D2781936
:1007700010F8200C08B10643F1E7B00701D526F0C8
:100780000406C4F81CA00027C4F818A02A2D09D01C
:10079000284603F072FE38B304EB8708303DC8F8F2
:1007A000185019E059F8041B204604EB87029161A8
:1007B000E1688847012F054618D1E069002820DA52
:1007C00026F020061DE0D8F8180000EB800005EBAD
:1007D00040003038C8F818002046E16888470546D0
:1007E00003F04BFE0028EED1012F0AD02E2D08D1A8
:1007F0002046E16888477F1C0546022F46F0200608
:10080000C4DBA069002803DA404246F00106A0617B
:10081000F00701D026F010066C2D0BD0682D09D002
:100820004C2D39D06A2D35D0742D35D07A2D33D05A
:1008300016E038E0E1682F4620468847B842054672
:1008400009D16C2F26D04FF48060E1680643204622
:100850008847054604E06C2F1AD04FF48070064399
:100860000DB3A5F14100192802D8203546F40066E1
:100870004A462946204626604E46FFF771FC80B165
:1008800001280BD0F61D26F0070000F1080956E7F5
:100890004020E4E78020D8E70020D6E706F10409ED
:1008A0004DE7284652E7206ABDE8F09F3855000022
:1008B0007CB5054600236846CDE9003300F07AFC9C
:1008C0006946284603F068FD7CBD30B5B0F10A02E8
:1008D0004FEA900E71F100034EEA817EB0EB0E00FC
:1008E00061EB91014FEA101E4EEA017E10EB0E0003
:1008F00041EB11114FEA102E4EEA016E10EB0E0083
:1009000041EB11214FEA104E4EEA014E10EB0E0062
:1009100041EB1141401841F100014FEAD00040EA9B
:1009200041704FEAD10110EB80054FEA810444EA9F
:10093000907444EB01046D1944EB0404521BA34171
:100940004FF0000348BF0A3200D530BD401C41F1D2
:10095000000130BD2DE9F0470D4699469246044608
:1009600000F124080168880604D5E06921F010012F
:10097000216000E00120A84201DD471B00E00027C4
:10098000A1697A1902EB0900081AA0612078C00653
:1009900002D42046FFF7D1FC002608E0D4E901216B
:1009A0001AF806009047206A401C761C20624E45CB
:1009B000F4DB2078C0060AD52046FFF7BEFC06E02F
:1009C000D4E9012130209047206A401C2062381E63
:1009D000A7F10107F4DC07E0D4E9012118F80500CC
:1009E0009047206A401C2062281EA5F10105F3DC17
:1009F0002046FFF7B8FC2078000602D50220BDE8AB
:100A0000F0870120FBE770472DE9FF4F0C461E469B
:100A10004FF0FF378BB0D2E90001DDF860800A901B
:100A20008A46C1F30A5505B93D46002108464FF0F4
:100A30000000BAF1000F00F4400005DA00EB80007E
:100A40004FF4400101EA50004FEA9059B9F1010F0B
:100A500000DDB9460A9850EA4A000ED044F610501C
:100A6000A5F2FF3545432F14B8F1000F1ED0754293
:100A7000291E1EDDC9F100021CE0B8F1010F4FF084
:100A8000000001D0302103E0F24305E02154401C76
:100A9000B042FBDB30460022002121540B99C1F803
:100AA0000880C1E900200FB0BDE8F08FBD1B6D1CB0
:100AB000DEE74A4600DA694206A800F075FC06AB9C
:100AC00093E8070003AB83E8070050460A9901F05A
:100AD000FDF98DE80700A0F500501F38009003983D
:100AE000002D0ADD42F21F014A460844002303A9F3
:100AF0000390684601F0A8FC09E0A0F500504A46C2
:100B00001F38002303A90390684601F0C7FC8DE855
:100B100007000004000C03D04FF0FF30410800E054
:100B20001046B8F1000F03D00022009215461EE0D7
:100B3000751E05D4FFF7C9FE303262556D1EF9D51A
:100B4000B3460122084302D000227F1C04E0207833
:100B5000302801D100227F1E002A099784D01DE091
:100B6000112D07DAFFF7B1FE303262556D1C50EAE5
:100B70000102F5D1084302D00098C8B10EE000216F
:100B8000681E05E0235C625C63542254401E491CCD
:100B90008142F7DBAB46A81B401E0990002004F8F9
:100BA0000B000B98099AC0F80880C0E9002B7AE77F
:100BB00011264FF0000857E72DE9F04F884604460C
:100BC000D21D22F0070191B0D1E90001CDE90A015F
:100BD00003F0AFFB02460B98C00F01D02D2007E0B9
:100BE0002068810701D52B2002E0202101EAC00006
:100BF000032A099001D0072A05DB03464146204617
:100C000000F072FB0BE12078800601D5E06900E07E
:100C10000620B8F1650F814606D0B8F1660F18D0EE
:100C2000B8F1670F70D131E00020B9F1110F0090D9
:100C300001DB112301E009F101030AAA01A90CA8B3
:100C4000FFF7E2FEDDE90C70002609F1010583469D
:100C500047E001204B4600904FF000470AAA01A947
:100C60000CA8FFF7D1FEDDE90DB00C995D4600261A
:100C700010B909F101000D18B9EB050003D4C0F15A
:100C8000FF3609F10105A5EB09002BE0B9F1010FD1
:100C900001DA4FF001090020B9F1110F0090484628
:100CA00001DD112300E003460AAA01A90CA8FFF701
:100CB000ABFEDDE90C704D46002683462078000728
:100CC0000AD4AB4500DA5D4601A8012D04DD4119C7
:100CD00011F8011C302907D04F4502DA17F1040F33
:100CE00004DA012082460FE06D1EEEE7002F02DCE1
:100CF000ED1B3E4403E0781CA84200DD7D1CB81BC0
:100D000000F1010A4FF000472078000703D4AA45FC
:100D100001DB4FF0FF3A0021B7F1004F0DF143081E
:100D20008DF8431024D002202B23002F01DA7F42BC
:100D30002D230A21021EA0F1010000DC5FB197FB08
:100D4000F1FC97FBF1F201FB1C7C17460CF1300C17
:100D500008F801CDEEE7A8F101000370218809052C
:100D600001D5452100E06521A0F1010800F8011C32
:100D700009980FA9A1EB0807FF1D00B10120411937
:100D800001EBEA70A1693844081A401EA06120787E
:100D9000C00602D42046FFF7D0FA099828B1D4E95A
:100DA00001219047206A401C20622078C00622D58D
:100DB0002046FFF7C2FA1EE0002E04DBB34502DD39
:100DC00001A8805D00E03020D4E901219047206A2D
:100DD000401C2062761CAAF101005FEA000A0AD1D9
:100DE00000F06AFAC0680168405CD4E901219047CC
:100DF000206A401C2062281EA5F10105DCDC07E00A
:100E0000D4E9012118F8010B9047206A401C2062A8
:100E1000381EA7F10107F3DC2046FFF7A4FA0320F0
:100E200011B041E62DE9F04F04460D46D21D22F0E7
:100E3000070089B0D0E900974846394603F079FAAF
:100E40000246F80F01D02D2307E02068810701D565
:100E50002B2302E0202101EAC0038DF820300BB1E2
:100E6000012000E00020032A824601D0072A04DB8B
:100E70002946204600F038FA3FE12078800601D468
:100E80000D2500E0E569C7F30A560D2D49DA00216A
:100E90004FEA175B08464FF00000002F00F44000B7
:100EA00007DA00EB80004FF4400100EBD07001EA5C
:100EB00060008115012901DD4FF0FF3100224FEA6A
:100EC000850CBCF1180F06D31346ACF118004FF097
:100ED0008052C24003E04FF4801323FA0CF30CF16C
:100EE0000C0CBCF1200F04D3ACF1200C09FA0CF06F
:100EF00001E007FA0CF000294FF0004801DD18B9B5
:100F00000FE00ED140450CD319EB02095F4121B926
:100F1000404502D19F4329EA0209BBEB175F00D08D
:100F2000761C2088000502D57B48784402E07A4888
:100F30007844193808AA302302F80A30037C0AF1F1
:100F40000101002E0AF1020A53546A4602DC4FF0F6
:100F5000300101E04FF031014FF001088DF8001031
:100F600002D0A6F2FF3603E059EA470100D06B4EEB
:100F7000002D02DC2178090704D54FF002082E214C
:100F80008DF80110C44600210BE0C7F303433F0175
:100F9000C35C491C6D1E02F80830052908F10108E0
:100FA00001DA002DF1DC00210CE000EB1973491C83
:100FB0001B786D1E082902F808304FEA091908F15C
:100FC000010801DA002DF0DC21688B0602D516E05D
:100FD000A8F10108E04505DD02EB080313F8013C28
:100FE000302BF5D0B8F1000F09DD02EB080313F840
:100FF000013C2E2B03D1090701D4A8F10108002DD3
:1010000005DD3E2102F808106D1E08F10108407C44
:10101000002E02F8080008F1010804DA2D207642BB
:1010200002F8080002E02B2002F808000A214FF421
:101030007A70864208F101080BDB96FBF0F330333F
:1010400002F8083096FBF0F308F1010800FB136684
:1010500001E0642E0CDB642096FBF0F3303302F8E1
:10106000083096FBF0F308F1010800FB136601E07D
:101070000A2E06DB96FBF1F0303002F8080008F18A
:10108000010896FBF1F001FB1060303002F8080017
:10109000A16908F1010808EB050202EB0A00081A31
:1010A000A0612078C00602D42046FFF746F9216AE5
:1010B00008AE01EB0A00206204E0D4E9012116F831
:1010C000010B9047BAF1010AF7D22078C00602D589
:1010D0002046FFF732F96E4609E016F8010B3E286C
:1010E0000FD0D4E901219047206A401C2062B8F15A
:1010F0000108F2D22046FFF736F909B00320BDE817
:10110000F08F206A2844206203E0D4E901213020D6
:1011100090476D1EEBD3F8E76A4D000002FCFFFF1D
:1011200010B5436913B1AFF3008001E0FFF73EF95A
:10113000012010BD127800F124010A7000224A70CB
:101140000122EDE711684FF0FF32E9E710B543697E
:1011500013B1AFF3008001E0FFF7C8F9012010BD23
:10116000128800F1240182840022C2840122EDE76A
:1011700011684FF0FF32E9E70FB4002300B589B0E2
:101180000CA900910B99CB60214B7B440693214B1A
:101190007B44079304236FF00042CDE901321E4ADD
:1011A0007A446B4608920246002004F0F9FC09B02C
:1011B0005DF814FB70B506464FF0FF3015460C463F
:1011C000324686B00091CDE90101694600200490C5
:1011D00004A8FFF7D1FF02460498211825B108B1F1
:1011E000084600E020462860049800280DD0002A18
:1011F00002DD0098884208D03246081B69460094F8
:10120000CDE9010404A8FFF7B7FF06B070BD0000E8
:10121000DB010000F30100003301000070B5164649
:101220000C46054600F040F8036893F801010128D8
:1012300006D0FF2C0FD8185D68B101202C7070BD4E
:10124000D3F807013246214603F207130344284628
:10125000BDE8704018474FF0FF3070BD754600F094
:101260001FF9AE4605006946534620F00700854643
:1012700018B020B5FEF7ECFFBDE820404FF00006A7
:101280004FF000074FF000084FF0000B21F007016E
:10129000AC46ACE8C009ACE8C009ACE8C009ACE8B1
:1012A000C0098D467047000010B500F005F8001D1C
:1012B00010BD00BFAD3E0000004870477003002025
:1012C00010B500F0F1F8006810BD10B5044600F04C
:1012D000EBF8046010BD10B50446FFF7E5FF0068A9
:1012E000005D00F0010010BD2DE9F0411F460446ED
:1012F00003260168072A01F4006004DB08B116A583
:1013000005E016A503E008B115A500E015A521F03C
:1013100010002060A069C01EA0610FB1401EA06136
:101320002046FFF70AF84FB1D4E90121384690472B
:10133000206A401C2062C01C206206E0206AFAE796
:10134000D4E9012115F8010B9047761EF8D220460A
:10135000FFF709F8BDE8F0814E414E006E616E0066
:10136000494E4600696E6600426842B1016811F854
:10137000013B23B1521EC0E90012184670470121FB
:10138000C160881E704742685AB1C368016843B99A
:1013900083688B4205D0491E521CC0E90012002010
:1013A00070474FF0FF3070472DE9F04781461646F1
:1013B0008AB0354878440DC88DE80D00324878442D
:1013C000801C03AC0DC884E80D0041F69B30084436
:1013D000372190FBF1F290FBF1F5A5F1800501FBBF
:1013E00012041B3C02D56442012000E00020DFF81B
:1013F00098A080460027FA44AAF1BE0A0EE0E00752
:101400000AD03246684607EB470101230AEB810107
:1014100001F044F88DE8070064107F1C002CEED129
:10142000194F7F44AE3F19E0E80715D007EB0410D1
:101430000DF1180A90E80E008AE80E00C068F0422C
:1014400001D1981908903246012306A903A801F09A
:1014500025F803AB83E807006D10641C002DE3D171
:101460004FF0010332466946B8F1000F03A802D0DD
:1014700000F0EAFF01E001F011F8C9E90001C9F844
:1014800008200AB0BDE8F0877049000010B5044696
:10149000AFF300802046BDE81040FEF7C4BE000058
:1014A0000048704750030020004870475003002058
:1014B0002DE9FF4F06468BB00878FF2806D0491C5F
:1014C0002D2805D000244FF0000908E000200CE092
:1014D0000124F8E709EB8903491C00EB430908786C
:1014E000FF28F7D114B1C9F100008146107800251A
:1014F0002C46AA4629462D2801D02B2804D1521C5F
:101500002D2813D0002082468B461078FF280FD05C
:101510004FF0000C0A21521CA5FB017804FB01814D
:1015200005FB0C11C5194BEB0104EEE70120EAE7BE
:10153000002108464FF00000BAF1000F02D000EB86
:1015400080004008C0F38157012F01DD4FF0FF37C5
:101550000E9955EA040009EB01080BD04FF002097F
:1015600018F5FA7F16DA4FEACA70002F706008DDAE
:10157000012007E04FEACA70C6E900B00FB0BDE82D
:10158000F08F00203060FFF78FFFC0F80090182127
:10159000084616E0B8F5FA7F18DD002F02DAF748A2
:1015A000784401E0F6487844D0E90010C6E900101C
:1015B00040EACA707060FFF777FFC0F8009014210E
:1015C00008460FB0BDE8F04F04F05DBA00210846B0
:1015D0004FF00000B8F10001099002DAC7F10002F3
:1015E00000E03A4601DAC8F1000106A8FFF7DCFE88
:1015F00006AB93E8070003AB83E8070044F23E0024
:101600005BEA04010090584604D144F21E012C46C6
:101610005D460091210C0904014306D10099240480
:1016200044EA15442D041039009104F07F41014330
:1016300006D10099240244EA15642D02083900916C
:1016400004F07041014306D10099240144EA157465
:101650002D01091F009104F04041014306D100997A
:10166000A40044EA9574AD00891E009104F0004185
:10167000084304D100986D196441401E00904FF05A
:1016800001033A466846B8F1000FCDE9014503A9C8
:1016900002DD00F018FF01E000F0EBFEBAF1000FF0
:1016A00004460D4601D084F00044002108464FF066
:1016B0000000099940F2FF77484010F00C0F07D165
:1016C00024F00040284303D0C4F30A50B84212D19A
:1016D000FFF7EAFEC0F80090C4F30A50B8420AD1FE
:1016E000A8487844D0E90010C6E9001004F0004191
:1016F0000843706042E7C6E900543FE72DE9FF4F19
:101700001F464FF0000A4FF0FF38454691B0D7E929
:101710000146CDF83CA0FFF7CFFDC0680168405CF2
:101720001090B96912986D1C8847396A81468847BC
:101730000028F6D1B9F1FF3F0AD0002E24F4D0647E
:1017400011DDB9F12B0F08D0B9F12D0F0BD102E04B
:10175000404615B013E744F48064B96912986D1CD3
:101760008847761E8146600504A901D52D2000E03A
:101770002B20002E01F1010B0DF130088DF8100027
:101780003FDDB9F1690F08D0B9F1490F05D0B9F1C2
:101790006E0F02D0B9F14E0F1CD13B4601A8009547
:1017A00080E85002DDE912126FF0020004F0FCF94B
:1017B000C11CCED10EE0B96912986D1C88478146D4
:1017C0001398761E44F4007405600F98401C002E98
:1017D0000F9016DDB9F1300FEDD0B9F1780F02D0CE
:1017E000B9F1580F0DD10F9801280AD13B46CDE928
:1017F0000054DDE91212001F029604F0D3F9C11C57
:10180000A7D1109989453ED144F0800406E0139990
:10181000681CAAF1010A44F400740860B9696D1CDF
:101820001298761E884730288146F0D02BE0109918
:10183000894505D1200603D4761E44F0800418E0C3
:10184000484602F01AFE08B3761E0DF123018B45BF
:1018500044F4007408D2A9F130000BF8010B200603
:1018600007D5AAF1010003E0200602D40AF1010025
:101870008246A00502D51399681C0860B9691298C0
:101880006D1C88478146002ED1DC53E0002E51DDCF
:10189000B9F1650F02D0B9F1450F4BD1A00549D57B
:1018A000B9696D1C1298761E24F440748847002E86
:1018B00081460CDD2B2804D0B9F12D0F07D144F45B
:1018C0008074B96912986D1C8847761E8146E005C0
:1018D00001D52D2100E02B2108F8011BCDF8008057
:1018E00021E0761E0DF13901884544F400740CD2D4
:1018F000A9F1300010F0FF0088F8000002D1009933
:10190000884509D908F1010806E0E00501D51E481F
:1019100001E042F20F708246B96912986D1C884747
:10192000814613980560002E04DD484602F0A5FDAF
:101930000028D6D1F96912988847FF2053468BF8C2
:10194000000088F8000000200A900B9004AA0CA95F
:101950000AA8FFF7ADFDA00502D46FF00100F8E67C
:1019600014F0240F12D0E0071CD13868DDE90A1208
:10197000031D3B600068C0E9001213E0C44700008B
:10198000B64700007A460000F1D8FFFF0AA9684672
:1019900002F002FDE00705D13868009A011D3960A8
:1019A000006802602846D4E64FF0013C50F8042B52
:1019B00051F8043B9A4221D1A2EB0C03934313EA62
:1019C000CC1317D150F8042B51F8043B9A4215D18F
:1019D000A2EB0C03934313EACC130BD150F8042B66
:1019E00051F8043B9A4209D1A2EB0C03934313EA4A
:1019F000CC13DBD04FF00000704700BFD01A01BA03
:101A0000B1FA81F101F0180122FA01F0CB40C1F1E5
:101A10002001DBB2C0B2C01A2CFA01F3D11A9143F3
:101A200011EAC311E6D1704701491820ABBEFEE7A9
:101A3000260002002DE9FF4F1F464FF03C0987B0FA
:101A40004FF00042DDE9141001F10108DDF858A063
:101A500002EA405003900020059083460546044664
:101A60000490B969461E08988847AAF1010A0290B5
:101A7000BAF1000F3BDD02982E2815D0102100F09E
:101A800017FA00282EDB4FF0010B0599014317D000
:101A9000B9F1000F0BDB4A46C11700F0F6F9054318
:101AA0000C43A9F1040905E0012004900BE008B102
:101AB00045F0010501200590049820B9361D02E08B
:101AC000049800B1361FB969089808F101088847E1
:101AD000BBF1000FAAF1010A0290C9D00999C1F81F
:101AE0000080C5E70298702808D0502806D0F96910
:101AF00008988847BBF1000F14D04FE000200290F7
:101B00000120BBF1000F049009D0B969089808F1D1
:101B100001088847AAF10109B9F1000F07DCF9694A
:101B2000089888476FF001000BB0BDE8F08F2B28B4
:101B300004D02D280CD14FF0FF300490B9690898DB
:101B400008F101088847A9F10109B9F1000FE6DDA4
:101B5000411CE4D00A2100F0ABF90028DFDB029938
:101B600008F1010801EB810100EB41000290B96925
:101B7000089888470A2100F09BF9099AA9F1010900
:101B8000B9F1000FC2F8008001DD0028E7DAF96939
:101B9000089888470499029800FB016655EA0400FA
:101BA00004D004F04041090002D006E0039898E018
:101BB000A40044EA9574AD00B61E04F0004108008C
:101BC00002D16D196441761E159810F0240F03D0D0
:101BD0004FF00B095C4803E04FF028096FF07D00DF
:101BE0008246564507DAAAEB06018944B9F1410F4E
:101BF00001DD4FF0410901200021A9F1010200F0AF
:101C000044F9024628400B462140084301D00121F7
:101C100000E00021501E029143F1FF312840214095
:101C2000084301D0012000E000200299834651EAD8
:101C30000B014FD0002108464FF00000039900F43B
:101C4000400039B100EB80004FF4400100EBD07050
:101C500001EA60008015012802DD4FF0FF3000E04E
:101C600013D0401C36D0029860B3BBF1000F0CD1EA
:101C70004A460120002100F008F92840214008438D
:101C800001D0012000E00020E0B101204A460021FF
:101C900000F0FBF8034640190A4661412D1A8C41B9
:101CA00011D3B9F1400F09DD159810F0240F02D0BF
:101CB000AAF1340603E0AAF1170600E0761C00251D
:101CC0004FF0004406E05B1E42F1FF3220EA0305BC
:101CD00021EA0204CAF10100B04206DA1B49039866
:101CE00008430190002000900EE0039AC4F3D32132
:101CF000E80A0A43164940EA44500A433146CDE90E
:101D00000002684602F0AEFB159810F0240F0BD0CD
:101D10001598C00715D13868DDE90012031D3B6036
:101D20000068C0E900120CE002A8694602F034FB2A
:101D30001598C00705D13868029A011D39600068FE
:101D400002604046F0E6000002FCFFFF0000F07F6A
:101D50000000F03F2DE9FF4F92461D4685B04FF041
:101D60000041DDE9124BDDE914727F1E01EA4B50A0
:101D7000414940F0FF4940EA0108002122F02000DB
:101D80004928049102D04E2828D04CE03BA00126DF
:101D900007C88DE80700A9690698641C88477F1E5C
:101DA000014606D41DF8060018B121F02001814239
:101DB0000BD0E96906988847032E34D0082E32D01C
:101DC0006FF0010009B0BDE8F08F761C032E01D042
:101DD000082EE0D1601CCAF80000DCE7A96906986B
:101DE000641C88477F1E2AD420F02000412826D179
:101DF000A9690698641C88477F1E20D420F0200023
:101E00004E281CD1A9690698641C88477F1E48F497
:101E1000002849F48009CAF8004001D4282806D0D7
:101E2000E969069888475FEACB7012D022E0A96979
:101E30000698641C88477F1E01D4002803DAE969EC
:101E400006988847BCE72928F1D1641CCAF80040ED
:101E5000E9E71BF0240F07D028680499031D2B60C5
:101E60000068C0E9001805E02868021D2A600068C3
:101E7000C0F800902046A5E70000F07F494E464993
:101E80004E495459000000007047B2F120030AD5B2
:101E9000C2F1200301FA02F120FA03F300FA02F082
:101EA00041EA0301704700FA03F14FF00000704768
:101EB0003A2800D2303820F02002412A01D3A2F182
:101EC0003700884201D34FF0FF3070475FEA400C83
:101ED00008BF91F0000F4FEA8C234FEAC12243EA7A
:101EE00051514FEA1C5018BF00F5F0404FEA300046
:101EF00018BF41F000415FEA6C5C00F02980BCF142
:101F0000FF3F08BF40F080407047130C06BF12042B
:101F10004FF0100C4FF0000C130E04BF12020CF126
:101F2000080C130F04BF12010CF1040C930F04BF33
:101F300092000CF1020CD30F04BF52000CF1010C03
:101F400011464FF00002A0F11F00A0EB0C007047FB
:101F500011F0004F08BF704731F000413FF4D5AF9A
:101F60000B0C06BF09044FF0100C4FF0000C0B0EC9
:101F700004BF09020CF1080C0B0F04BF09010CF19E
:101F8000040C8B0F04BF89000CF1020CCB0F04BFB3
:101F900049000CF1010CCCF12003A0EB0C0022FA5B
:101FA00003F302FA0CF241EA030100F10100704769
:101FB00020F07F4C80EA030023F07F47ACEB07035F
:101FC00003F57C5300F0004003F1FF032DE9804945
:101FD0004FEA154B09B44FEA144325EA0B4E24EAA5
:101FE00003480FF2042606EB132749083E785FEA00
:101FF000320203FB0667C7F5000707FB06F64FEA48
:1020000054374FEAD64606F1020607FB066CCCF1C0
:10201000005C4FEA1C472CEA074C07FB06F40CFB5C
:1020200006F504EB15464FEA961634BF00204FF034
:1020300000404FEAD13706FB07FC4FEA1C4C0CFB73
:102040000BF7D21B03FB0CF761EB07010CFB0EF740
:10205000B0EB074072EB17420CFB08F734BFA2EB62
:102060000742B2EB074261EB17414FEA0C444FEADB
:10207000910706FB07FC4FEA1C4C0CFB0BF7B0EB7F
:10208000C74072EB573203FB0CF734BFA2EBC742D9
:10209000B2EBC74261EB57310CFB0EF7B0EBC70058
:1020A00072EB57720CFB08F734BFA2EBC702B2EB1E
:1020B000C70261EB5771039F4FEA816141EA9211B8
:1020C00004EBCC044FEAD1374FEA826206FB07FCEF
:1020D00042EA90124FEA80604FEA1C4C0CFB0BF76F
:1020E000D21B03FB0CF761EB07010CFB0EF7B0EB07
:1020F000074072EB17420CFB08F734BFA2EB074214
:10210000B2EB074261EB17414FEA8C554FEA91075A
:1021100004EB9C2406FB07FC4FEA1C4C0CFB0BF762
:10212000B0EBC74072EB573203FB0CF734BFA2EBA6
:10213000C742B2EBC74261EB57310CFB0EF7B0EB75
:10214000C70072EB57720CFB08F734BFA2EBC70253
:10215000B2EBC70261EB577115EB4C254FEA816179
:1021600041EA92114FEA82624FEAD13742EA901275
:1021700006FB07FC44F100044FEA80604FEA1C4C68
:102180000CFB0BF7D21B03FB0CF761EB07010CFBFD
:102190000EF7B0EB074072EB17420CFB08F734BFA9
:1021A000A2EB0742B2EB074261EB174115EB1C159E
:1021B0004FEA813141EA92414FEA823242EA90424B
:1021C0004FEA80304FEA0C7644F1000448EA0343BA
:1021D0004EEA0B484FF0000EB2EB080C71EB030710
:1021E00024BF624639464EEB0E0E4FF0000B00182E
:1021F000524149414BEB0B0BB2EB080C71EB03075F
:102200007BF1000B24BF624639464EEB0E0E4FF0B9
:10221000000B0018524149414BEB0B0BB2EB080C81
:1022200071EB03077BF1000B24BF624639464EEB8E
:102230000E0E51EA020718BF46F0010616EB0E76A5
:1022400055F1000254F1000103D5BDE88901BDE854
:102250000088BDE88901BDE80048B619524141EB4C
:102260000101A3F10103704780807F7E7D7C7B7A32
:102270007978777676757473727171706F6E6E6D32
:102280006C6C6B6A6A6968686766666564646363D8
:1022900062616160605F5F5E5E5D5D5C5C5B5B5A5E
:1022A0005A595958585757565655555554545353CB
:1022B00052525251515050504F4F4F4E4E4D4D4D26
:1022C0004C4C4C4B4B4B4A4A4A4949494848484771
:1022D00047474746464645454544444444434343AF
:1022E000434242424241414146EA0646A3F5705309
:1022F0004FEA164646EA42564FEAD22242EA415295
:1023000010B54FEAD121A3F1010300F02FF820F01E
:10231000004000F1020C00F0004701EB00501146B4
:10232000BCF5006F40EA070000D210BDBAF1000F03
:102330000AD01CB503B44FF004004FF004014FF075
:1023400000000FBCBDE810404FF00001BBF1010FD1
:10235000B9BF04484FF0FF310348002140EA0700AD
:1023600010BD00BFFFFFEF7F0000F07F002B9C46F9
:1023700030D477002BD01CB54FEA370703B44FF0A9
:1023800010004FF01001BAF1000F06D0BCF1000FA1
:10239000DCBF40F0080040F008014FF000000FBC27
:1023A000BDE810400BF1010BBBF1010F08BF5FEA64
:1023B000170722BF12F1010211F101014FF0004194
:1023C00043F1000300F0004043EA00007047F9D3F6
:1023D0005708D0E746EA064613F1400F4FEA164683
:1023E0001FDD13F1200FDFBF16430A460021203303
:1023F0005B42BED0C3F1200746EA064602FA07F761
:102400004FEA164646EA0706C3F1200722FA03F20E
:1024100001FA07F721FA03F14FF0000342EA07023D
:10242000A7E746EA020646EA06464FEA164646EAA5
:102430000106BCBF46EA0646360C4FF000034FF0DB
:1024400000024FF0000194E72DE9804C9A46934634
:1024500070B491E8380007C831EA400C48BF34EA4C
:10246000430C03D5FFF7A4FDFFF780FFF0BCBDE8E8
:10247000008C2DE9804C9A46934670B491E8380060
:1024800007C831EA400C48BF34EA430C03D5FFF7D4
:102490008FFDFFF729FFF0BCBDE8008C2DE9804CD3
:1024A0009A46934670B491E8380007C810F0804F00
:1024B00008BF13F0804F03D100F01AF8FFF756FF62
:1024C000F0BCBDE8008C2DE9804C9A46934670B470
:1024D00091E8380007C810F0804F08BF13F0804F14
:1024E00003D100F005F8FFF7FFFEF0BCBDE8008C5B
:1024F00020F07F4780EA030023F07F4C07EB0C03BA
:10250000A3F57C5300F00040A3F1FE0392F0000F0E
:1025100000F0B38095F0000F00F077802DE90149BD
:102520004FEA11404FEA144621EA004800FB06FC3E
:1025300024EA064708FB06F607FB08F800FB07F746
:1025400018EB06484CEB164C4FEA124B18EB0748B9
:102550004FEA15464CEB174022EA0B4E0BFB06FCEC
:1025600025EA06470EFB06F607FB0EFE0BFB07F7F8
:102570001EEB064E4CEB164C4FF000061EEB074EC2
:102580004CEB174B18EB0B0840F1000018EB0E0B4F
:1025900058EB000840F100008F1A4FF000013CBFDB
:1025A000C943661B14BFB5EB040C00213CBFC943F3
:1025B000F61B4FEA17444EEA8E0E27EA04454FEA0F
:1025C0001C4704FB07622CEA074C05FB07F70CFBD2
:1025D00005F604FB0CFC16EB074642EB174216EB24
:1025E0000C4642EB1C421BEB060658EB0202414133
:1025F00046EA9E0601D5BDE80189B619524141EB74
:102600000101A3F10103BDE801894FEA14454FEA36
:10261000114724EA054621EA074C05FB07F406FBAF
:1026200007F70CFB06F105FB0CFC11EB074144EB33
:1026300017444FEA124711EB0C4144EB1C4422EAC9
:10264000074C05FB07F206FB07F70CFB06F605FB3C
:102650000CFC16EB074642EB174216EB0C4642EB1E
:102660001C456A1854F1000148BF7047B619524121
:1026700041EB0101A3F10103704795F0000F37D042
:102680004FEA11424FEA144721EA024624EA074C76
:1026900002FB07F106FB07F70CFB06F402FB0CFC40
:1026A00014EB074441EB17414FEA154714EB0C4478
:1026B00041EB1C4125EA074C02FB07F506FB07F737
:1026C0000CFB06F602FB0CFC16EB074645EB174528
:1026D00016EB0C4645EB1C42121951F1000148BFA4
:1026E0007047B619524141EB0101A3F10103704754
:1026F0004FEA14454FEA114724EA054621EA074C00
:1027000005FB07F106FB07F70CFB06F24FF000068E
:1027100005FB0CFC12EB074241EB174112EB0C429C
:1027200051EB1C4148BF7047921841EB0101A3F1E6
:1027300001037047FEE7704772B6FEE710B590F8E8
:1027400021100022022905D00421816380F8202075
:10275000012010BD01680B6823F00E030B600168B7
:102760000B6823F001030B6090F84030C46B01212B
:1027700001FA03F3636080F8211080F820201046EE
:1027800010BD000010B590F821100024022903D0DC
:102790000421816301243DE001680A6822F00E02F1
:1027A0000A6001680A6822F001020A601A4A016898
:1027B000914201D1012121E0174A1432914201D105
:1027C00010211BE0144A2832914201D1891515E0ED
:1027D000114A3C32914201D189140FE00E4A503225
:1027E000914202D14FF4803108E00B4A64329142A9
:1027F00002D14FF4801101E04FF08071064A083A8F
:102800005160012180F82110002180F82010416BD7
:1028100001B18847204610BD080002402DE9F84F5D
:10282000DFF8B8910024A9F1040B23460F2709F122
:10283000040AABF1040EC9E00125A5402A40AA42D2
:102840007DD1674ED1F804C0ACEB0608B44532D058
:1028500014DCBCF1030F3AD009DCBCF1000F2AD024
:10286000BCF1010F1CD0BCF1020F31D11DE0BCF155
:10287000110F17D0BCF1120F2AD119E0B8F5881F3B
:1028800019D006DCB8F5803F15D0B8F5801F1FD1F0
:1028900011E0B8F5001F0ED0B8F5041F18D10AE0FA
:1028A000CB6815E0CB681B1D12E0CB6808330FE046
:1028B000CB680C330CE08B682BB1012B4FF0080375
:1028C00003D0456104E0042302E0056100E0002339
:1028D000FF2A01D8064601E000F104064FEA84050C
:1028E00001D9A5F12005D6F8008007FA05FC28EAF1
:1028F0000C0803FA05F548EA0508C6F800804D689B
:10290000ED0062D5374DAE6946F00106AE61AD69A6
:1029100024F0030605F001050095334D06EB050C88
:10292000DCF80850A607360F07FA06F825EA08056E
:10293000DFF8B880404503D14FF0000817E044E0CD
:10294000DFF8AC80404502D14FF001080FE0DFF81E
:10295000A480404502D14FF0020808E0DFF89880DB
:10296000404502D14FF0030801E04FF0040808FA97
:1029700006F848EA0508CCF808804D68D9F80060E8
:10298000ED024D4601D5164300E096432E604D689A
:10299000DAF80060AD02554601D5164300E09643D3
:1029A0002E604D68DBF80060AD035D4601D516432F
:1029B00000E096432E604D68DEF80060ED0375463A
:1029C00001D5164300E096432E60641C0D682A462C
:1029D000E5407FF431AFBDE8F88F00000804014006
:1029E00000001110001002400000014000080140EA
:1029F000000C0140001001400014014080680840B4
:102A000000D001207047C26821EA02030A4043EA6D
:102A10000241016170470AB1016170470904FBE797
:102A2000014880687047000060000020024881680B
:102A3000027811448160704760000020074810B59B
:102A4000016841F010010160032000F075F80F20CB
:102A500000F006F800F024F8002010BD002002402D
:102A600070B50D4D04464FF47A712878B1FBF0F043
:102A70000A490968B1FBF0F000F0DCFA48B9102C03
:102A800007D200222146501E00F036F800206C606C
:102A900070BD012070BD0000600000206C000020AF
:102AA0000C4808B5816941F001018161816901F03B
:102AB00001010091C16941F08051C161C06900F01C
:102AC000805000900448416821F0E06141F00071BD
:102AD000416008BD0010024000000140002809DBF1
:102AE00000F01F02012191404009800000F1E02028
:102AF000C0F8001170470000F0B40E4B1B680C4684
:102B0000C3F30223C3F10705042D00D90425191DC1
:102B1000072901D2002300E0DB1E012606FA05F199
:102B2000491E214099409E40761E16403143F0BC1C
:102B300001F013BC0CED00E0064900F00702086844
:102B40004FF6FF03184040EA0220034A1043086092
:102B5000704700000CED00E00000FA052DE9F04799
:102B60000F46050061D0434E306800F00700B842C0
:102B700009D2306820F0070038433060306800F038
:102B80000700B84251D128683B4C810712D5400755
:102B900003D5606840F4E06060602878000703D5E2
:102BA000606840F4605060606068A96820F0F000E0
:102BB000084360602878C00728D06868012810D0D2
:102BC0002168022810D0890700292EDA616821F0D7
:102BD000030101436160FFF723FF804641F288391A
:102BE0000DE021688903EFE78901EDE7FFF718FFA2
:102BF000A0EB0801494502D90320BDE8F0876068D1
:102C0000696800F00C00B0EB810FEFD1306800F084
:102C10000700B8420BD9306820F007003843306015
:102C2000306800F00700B84201D00120E5E72878BD
:102C3000400705D56068E96820F4E06008436060FB
:102C40002878000706D56068296920F4605040EABA
:102C5000C100606000F038F86168084AC1F30311F0
:102C6000515CC8400649086006480068FFF7F8FE56
:102C70000020C2E700200240001002402A5C000849
:102C80006C00002064000020044805490068496881
:102C9000044AC1F30221515CC84070476C00002017
:102CA000001002403A5C0008044805490068496881
:102CB000044AC1F3C221515CC84070476C00002037
:102CC000001002403A5C00080E4A51680E4801F0BC
:102CD0000C03042B11D0082B0FD10C48C1F38343F4
:102CE000C903C05C0AD55168084AC1F34041921E2D
:102CF000515C054A5043B0FBF1F07047044948432A
:102D0000704700000010024000127A001A5C0008B0
:102D100000093D002DE9F84F040070D02078C04D27
:102D2000C00749D06868C0F38100012807D06868EF
:102D3000C0F38100022809D16868C00306D528685D
:102D4000800339D560680028E7D035E06068B0F5C9
:102D5000803F0BD010B1B0F5A02F11D0286820F41F
:102D600080302860286820F4802002E0286840F441
:102D700080302860606890B1FFF752FE06460AE096
:102D8000286840F480202860F0E700BFFFF748FE85
:102D9000801B642873D828688003F7D50CE0FFF700
:102DA0003FFE064605E000BFFFF73AFE801B6428A1
:102DB000F0D828688003F7D420789A4E80074FF027
:102DC00001094FF0000839D5686810F00C0F07D0E2
:102DD0006868C0F38100022809D16868C00306D47E
:102DE0002868800714D52069012808D110E02069DF
:102DF000B0B1C6F80090FFF713FE074605E00AE100
:102E0000FFF70EFEC01B0228C4D828688007F7D53C
:102E10002868616920F0F80040EAC10028600DE0F0
:102E2000C6F80080FFF7FCFD074604E0FFF7F8FD59
:102E3000C01B022823D828688007F7D42078000711
:102E40002CD57948A169D9B1C0F80090FFF7E8FD09
:102E5000074604E0FFF7E4FDC01B02280FD8686AAC
:102E60008007F7D571484FF4FA510068B0FBF1F0D4
:102E7000009000BF0098411E0091FAD20EE080E061
:102E8000C0F80080FFF7CCFD074604E0FFF7C8FD5F
:102E9000C01B022875D8686A8007F7D420784007DD
:102EA00060D5E8690027C00008D4E86940F0805088
:102EB000E861E869012700F0805000905C480168F3
:102EC000C90513D40168834641F480710160FFF79E
:102ED000A7FD824606E000BFFFF7A2FDA0EB0A00B7
:102EE00064284ED8DBF80000C005F5D5E06801285D
:102EF0000AD008B1052813D0286A20F00100286202
:102F0000286A20F0040002E0286A40F001002862EC
:102F1000E06841F2883B98B1FFF782FD82460BE002
:102F2000286A40F004002862EEE700BFFFF778FD52
:102F3000A0EB0A0159455AD8286A8007F6D50CE05B
:102F4000FFF76EFD824605E0FFF76AFDA0EB0A0180
:102F500059454CD8286A8007F6D41FB1E86920F09B
:102F60008050E861E06988B36968C1F38101022992
:102F700044D00228C6F8608004D0FFF751FD044613
:102F800038E034E0FFF74CFD074604E0FFF748FD6A
:102F9000C01B02282BD828688001F7D4206AB0F51E
:102FA000803F05D16868A16820F40030084368605C
:102FB000D4E908010843696821F474110843686082
:102FC000C6F86090FFF72CFD044606E025E000BF40
:102FD000FFF726FD001B022809D828688001F7D5D5
:102FE0001BE000BFFFF71CFD001B022802D90320D5
:102FF000BDE8F88F28688001F4D40EE00128F7D0EE
:103000006868226A00F48031914204D1616A00F458
:103010007010884201D00120EAE70020E8E70000B4
:103020000010024000004242800442426C00002036
:103030000070004010B5401EB0F1807F01D3012028
:1030400010BD4FF0E02460610F21601701F085F999
:103050000020A06107202061002010BD70B590F80D
:103060003C20012A26D0012480F83C40022280F82E
:103070003D2003685A689D6822F070060A68324352
:103080005A600D4B02689A4208D0B2F1804F05D0C9
:103090000A4B9A4202D00A4B9A4204D1496825F061
:1030A00080031943916080F83D40002180F83C1076
:1030B000084670BD022070BD002C01400004004095
:1030C0000008004010B5040003D094F83D0010B192
:1030D00007E0012010BD002084F83C00204600F0ED
:1030E0001FF8022084F83D00211D206800F0B2FE88
:1030F000012084F8460084F83E0084F83F0084F8FC
:10310000400084F8410084F8420084F8430084F8C9
:10311000440084F8450084F83D00002010BD000004
:1031200008B500680649884208D10648C16941F0DF
:103130000401C161C06900F00400009008BD0000F6
:10314000000800400010024070B5044690F83C00B2
:103150000025012817D0012684F83C60022084F85D
:103160003D002068826822F0770222F47F4282606C
:103170000868502838D00DDC20284FD005DC90B3EB
:10318000102811D14AE0022070BD302846D04028D6
:103190000AD13BE060282FD070280DD0B0F5805FB9
:1031A00003D0B0F5005F12D0012584F83D60002007
:1031B00084F83C00284670BDCB68D1E90121206825
:1031C00000F091FE2068816841F0770109E0CB684A
:1031D000D1E90121206800F086FE2068816841F471
:1031E00080418160E1E719E0CA684968206800F021
:1031F0002FFF5021206806E0CA684968206800F067
:1032000038FF6021206800F078FECEE7CA68496880
:10321000206800F01DFF40212068F4E72268014685
:103220001046F0E72DE9F0410D46040003D094F874
:103230003D0018B108E00120BDE8F081002084F8CD
:103240003C00204600F040F8022084F83D00206851
:10325000816844F2070291438160211D206800F0DB
:10326000F9FD226890689169166A2B68AF6903437B
:1032700040F20330814341EA0721A868EF6908431F
:103280004FF6FC418843E96840EA0720014328697A
:103290002F6A000140EA0730084369686D6926F02B
:1032A000220646EA0515294393602268906154F886
:1032B000460B0162012004F81F09E0752076E076D4
:1032C0002077A0750020B7E770B586B0002500957F
:1032D00001950295039500682B492C4E2C4CB0F1BA
:1032E000804F22D02B4A90421DD1C86940F0020085
:1032F000C861C86900F002000490886940F00800C5
:1033000088618869694600F00800049030200090C8
:103310003046FFF783FA606820F4406040F0E060D8
:1033200040F40060606006B070BDC86940F0010004
:10333000C861C86900F001000490886940F0040089
:103340008861886900F004000490886940F00800F2
:1033500088618869694600F0080004904FF40040D5
:1033600000900D48FFF75AFA0820CDE9000569469C
:1033700030460295FFF752FA606820F4407040F042
:10338000E06040F48070CDE700100240000C014086
:1033900000000140000400400008014070B590F8B2
:1033A0003E60044690F83F5090F8423090F8432039
:1033B000022021B104290ED0012E1BD114E0012ED0
:1033C00018D1012B16D184F83E0084F84200012266
:1033D0000021206820E0012D0CD1012A0AD184F8B7
:1033E0003F0084F8430014E0012D03D1012B01D1EB
:1033F000012A01D0012070BD84F83E0084F83F000E
:1034000084F8420084F8430001220021206800F083
:103410005DFD01220421206800F058FD206801684C
:1034200041F001010160002070BD000000B585B0D1
:103430000021009101910291039100680B4988429B
:1034400012D10B48816941F00801816180696946A8
:1034500000F0080004904FF44070009002200190AA
:1034600003900448FFF7DAF905B000BD00080040FA
:1034700000100240000C014070B5044690F83C007A
:1034800000260D4601280FD0012084F83C006AB1C7
:10349000042A1DD0082A2FD00C2A3FD00126002054
:1034A00084F83C00304670BD022070BD206800F0FA
:1034B0002DFD2068816941F00801816120688169E2
:1034C00021F004018161206881692A69114311E0BA
:1034D000206800F043FD2068816941F4006181614A
:1034E0002068816921F480618161206881692A698D
:1034F00041EA02218161D2E7206800F05BFD20688B
:10350000C16941F00801C1612068C16921F004016D
:10351000C1612068C1692A69114311E0206800F087
:1035200075FD2068C16941F40061C1612068C1690D
:1035300021F48061C1612068C1692A6941EA0221E0
:10354000C161ACE710B5040003D094F83D0010B1A0
:1035500007E0012010BD002084F83C00204600F068
:103560001EF8022084F83D00211D206800F072FC46
:10357000012084F8460084F83E0084F83F0084F877
:10358000400084F8410084F8420084F8430084F845
:10359000440084F8450084F83D00002010BD7047C9
:1035A00010B50446022249B104290ED0082913D0CF
:1035B00094F84100012816D0012010BD94F83E0077
:1035C0000128F9D184F83E200FE094F83F0001284B
:1035D000F2D184F83F2008E094F840000128EBD1B4
:1035E00084F8402001E084F841200122206800F0A6
:1035F0006DFC0F492068884203D1426C42F40042BE
:1036000042642068884208D0B0F1804F05D0094953
:10361000884202D00849884204D1816801F007013C
:10362000062903D0016841F001010160002010BDAE
:10363000002C0140000400400008004070470000DA
:1036400000680649884201D1002003E0044988420D
:1036500002D1012001F04ABD70470000003801404E
:1036600000440040F8B5016804460868CA684B6920
:1036700010F00F0F4FF0000559D003F0010602F4CF
:103680009077374365D0C10705D0D10503D5616C6C
:1036900041F001016164410705D5D90703D0616C90
:1036A00041F002016164810705D5D90703D0616C3F
:1036B00041F004016164010707D502F020013143A4
:1036C00003D0616C41F008016164616C00293AD05B
:1036D000800604D5900602D5204600F00BFD206838
:1036E0004069616CC0F38010090700D460B32046C4
:1036F00000F0D9FC20684069400621D520681430CC
:1037000050E8001F21F0400140E80012002AF5D1E6
:10371000E06BA8B16D494163E06BFFF733F8002817
:1037200011D0E06B416B01B0BDE8F0400847830663
:103730000FD593060DD52046BDE8F84000F0DABC61
:103740002046FFF77DFFF8BD2046FFF779FF65644F
:10375000F8BD266B2023012E7CD1C6067AD5D6066D
:1037600078D508684868009048694FF0020640061E
:1037700040D5E16B086840680004000CE8D0A28DD9
:103780008242E5D9E085886920282DD020680C3058
:1037900050E8001F21F4807140E80012002AF5D1A2
:1037A0002068143050E8001F21F0010140E80012A9
:1037B000002AF5D12068143050E8001F21F04001A4
:1037C00040E80012002AF5D184F8423025632068D1
:1037D0000C3050E8001F21F0100140E80012002AD0
:1037E000F5D1E06BFEF7AAFF6663A08DE18D401A6C
:1037F00081B22AE0A08DE18D401A81B2E08D0028CF
:10380000A6D00029A4D022680C3252E8000F20F480
:10381000907042E80007002FF5D12068143050E87E
:10382000002F22F0010240E80027002FF5D184F894
:103830004230256320680C3050E8002F22F010023F
:1038400040E80023002BF5D166632046FFF7F6FE23
:10385000F8BDFFE705062BD5150629D594F84100DC
:103860002128F5D1A068B0F5805F01D12069B0B101
:10387000206A411C2162216800784860E08C401E6B
:103880000004000CE084E3D12068C16821F08001CD
:10389000C1602068C16841F04001C160D8E7206A7A
:1038A0000088C0F308004860206A801C2062E5E7B9
:1038B0004006CDD55006CBD5CA68204622F040023E
:1038C000CA6084F8413000F027F9C1E7974000084A
:1038D00070B5040004D094F84100002510B106E052
:1038E000012070BD84F84050204600F023F82420C9
:1038F00084F841002068C16821F40051C16020466D
:1039000000F05AFC2068016921F4904101612068AF
:10391000416921F02A0141612068C16841F40051E8
:10392000C1606564202084F8410084F8420065632A
:10393000002070BD70B586B00024009401940294FC
:1039400003942E4E03682E49022003222D4DB342CC
:1039500026D18B6943F480438B618B6903F48043E8
:1039600004938B6943F004038B618969039201F02E
:10397000040104910102CDE9001069462846FEF7D2
:103980004DFF2815CDE90004694628460294FEF74C
:1039900045FF002211462520FFF7AEF8252028E03C
:1039A000194EB34227D1CB6943F40033CB61CB69C5
:1039B00003F4003304938B6943F004038B6189693A
:1039C000039201F0040104910421CDE9001069463D
:1039D0002846FEF723FF0820CDE900046946284663
:1039E0000294FEF71BFF002211462620FFF784F801
:1039F0002620FFF773F806B070BD000000380140C4
:103A000000100240000801400044004090F842309D
:103A1000202B01D00220704721B11AB1002303638B
:103A200000F026BC0120704770B50068104988423C
:103A300001D1002403E00F49884218D10124204617
:103A400001F04AFBB0F88210B0F88420491C01F064
:103A50007F018A4206D00378B0F88250421CAB54F2
:103A6000A0F882102046BDE8704001F03FBB70BD59
:103A700000380140004400402DE9F843044690F826
:103A80004100984616460D46202802D00220BDE887
:103A9000F88385B17EB100206064212084F8410064
:103AA000FEF7BEFFA6848146E684A0682027B0F515
:103AB000805F02D003E00120E9E7206910B12E46C3
:103AC00000250EE000260CE08021204600F0EBFBF4
:103AD000A8B9C6B116F8010B21684860E08C401EF9
:103AE000E084E08C4B464FF00002CDF800800028C7
:103AF000EAD14FF04001204600F0D5FB40B184F8F8
:103B000041700320C3E735F8020BC0F30800E3E778
:103B100084F841700020BAE77047FEE72DE9F047CE
:103B200086B0002431480094019402940394816982
:103B300041F010018161816901F0100104918169F6
:103B400041F020018161816901F0200104918169C6
:103B500041F004018161816901F0040104918169EE
:103B600041F0080181618069DFF8848000F008007D
:103B70004FF400550490002229464046FEF74BFFC3
:103B8000DFF870900122E0214846FEF744FFDFF89D
:103B900068A04FF47047002239465046FEF73BFFBD
:103BA0000095022601250396CDE901546946404659
:103BB000FEF734FE10208DE8310069464846FEF7D6
:103BC0002DFEE020CDE90005CDE9024669464846D4
:103BD000FEF724FE00970396CDE90154694650464E
:103BE000FEF71CFE06B0BDE8F087000000100240A2
:103BF0000010014000080140000C014010B58CB0DD
:103C000024216846FCF76FFB0024154809944FF007
:103C100080410A94C0E900144FF6FF71C0E90241E7
:103C2000046184610320CDE900040120CDE9020490
:103C30000494CDE905400794694609480894FFF7C4
:103C4000F1FA08B1FEF778FD099409A904480A942D
:103C5000FFF704FA002801D0FEF76EFD0CB010BD8E
:103C6000E801002010B58CB024216846FCF73BFB2E
:103C700000241648099414490A94C0E900144FF628
:103C8000FF71C0E90241046184610320CDE90004B1
:103C90000120CDE902040494CDE90540079469466A
:103CA0000A480894FFF7BEFA08B1FEF745FD0994EB
:103CB00009A906480A94FFF7D1F9002801D0FEF7B8
:103CC0003BFD0CB010BD000000040040300200209D
:103CD00010B58EB000240794089409940A940B94AC
:103CE0001C2168460C94FCF7FEFA22482049C0E9E2
:103CF000001440F60F61C0E9024180210461816136
:103D0000FFF7E0F908B1FEF717FD4FF48050079078
:103D100007A91848FFF718FA08B1FEF70DFD154876
:103D2000FFF710FC08B1FEF707FD0B940BA9114833
:103D30000C94FFF793F908B1FEF7FEFC6020CDE983
:103D400000040294082269460A480494FFF794FB91
:103D500008B1FEF7F1FC0C2269460648FFF78CFB20
:103D600008B1FEF7E9FC0348FFF760FB0EB010BD99
:103D700000080040780200200C4810B50A49016094
:103D80004FF4E1314160002181600C22C160C0E943
:103D900004128161C161FFF79BFD002803D0BDE8DB
:103DA0001040FEF7C9BC10BD00380140C002002021
:103DB0000C4810B50A4901604FF4E131416000211F
:103DC00081600C22C160C0E904128161C161FFF70A
:103DD0007FFD002803D0BDE81040FEF7ADBC10BD4C
:103DE0000044004008030020FEE7FEE770477047EC
:103DF000FEF71CBE30B58FB028216846FCF773FA79
:103E000014210AA8FCF76FFA01210804CDE900107B
:103E10000024029402250491CDE907504FF4E010EC
:103E200009906846FEF776FF08B172B6FEE70F20EC
:103E3000CDE90A054FF48060CDE90C4002210AA8C3
:103E40000E94FEF78BFE002801D072B6FEE70FB08D
:103E500030BD7047F0B50268194B1A4C1A4D4FF03F
:103E60008047984205D0B84203D0A04201D0A84272
:103E700003D122F070064A683243984205D0B84216
:103E800003D0A04201D0A84203D122F44074CA68F2
:103E900022434C6922F08002224302608A68C26297
:103EA0000A688262984201D1096901630121416176
:103EB0000169C90703D0016921F001010161F0BD69
:103EC000002C0140000400400008004010B501F043
:103ED0001F030121046A99408C430462016A9A40DD
:103EE0001143016210BD10B5846842EA032224F434
:103EF0007F440A432243826010BD826822F0700230
:103F00000A4342F0070181607047000030B5036A40
:103F1000026A22F0010202624268846924F0730599
:103F20000C682C4323F002058B682B430A4DA842F2
:103F30000BD123F00805CB6822F440722B434D6966
:103F400023F0040315438A692A4342608461496867
:103F50004163036230BD0000002C014030B5026AAD
:103F6000036A23F010030362436884690D6824F434
:103F7000E64444EA05248D6822F0200242EA051254
:103F80000B4DA8420ED1CD6822F0800242EA051204
:103F90004D6923F4406343EA85038D6922F04002B2
:103FA00043EA85034360846149688163026230BDEE
:103FB000002C014030B5036A026A22F4807202626A
:103FC0004268C46923F4007324F073050C682C4321
:103FD0008D6843EA05230C4DA8420ED1CD6823F429
:103FE000006343EA05234D6922F4405242EA051278
:103FF0008D6923F4806342EA05124260C461496816
:10400000C163036230BD0000002C014030B5046A7A
:10401000026A22F4805202624268C3690D6823F486
:10402000E64343EA05238D6824F4005444EA05344A
:10403000064DA84204D14D6922F4804242EA85121D
:104040004260C36149680164046230BD002C0140D4
:1040500010B5036A046A24F001040462846924F040
:10406000F00444EA021423F00A020A438461026263
:1040700010BD10B5036A046A24F010040462846958
:1040800023F0A00324F4704444EA023243EA01110D
:104090008261016210BD10B5406A0021C185C184F2
:1040A000FFF7CEFA10BD01680C3151E8002F22F461
:1040B000907241E80023002BF5D10168143151E8DA
:1040C000002F22F0010241E80023002BF5D1016B03
:1040D000012909D101680C3151E8002F22F01002AA
:1040E00041E80023002BF5D1202180F84210002167
:1040F0000163704708B590F84210222901D00220D0
:1041000008BD82684FF480539A4201D1016921B100
:10411000816A9A421BD04AB10AE00268816A5268F9
:10412000C2F308020A80816A891C08E0026972B140
:104130000268526802F07F020A70816A491C81623B
:10414000C18D491E0904090CC18503D01BE002681A
:104150005268F1E70168CA6822F02002CA6001686B
:10416000CA6822F48072CA6001684A6922F00102BA
:104170004A61202180F8421000214163026B012A2C
:1041800003D0FFF751FC002008BD016301680C312A
:1041900051E8002F22F0100241E80023002BF5D156
:1041A00001680A68D20602D50A6849680091818DC3
:1041B000FFF744FAE7E7000070B5044600680169BC
:1041C000E26821F44051114301612169A06808436C
:1041D000616908432168CA6841F20C639A4302434B
:1041E000CA6020684169A26921F4407111434161AC
:1041F0001E492068884202D1FEF756FD01E0FEF715
:1042000043FD00EBC00101EB0012606864218000F7
:10421000B2FBF0F3B3FBF1F36FF018067343B2FB9C
:10422000F0F5B2FBF0F605EB8305322303EB051541
:10423000B5FBF1F5B6FBF1F605F0F00505EB06155B
:10424000B2FBF0F6B2FBF0F0B0FBF1F06FF0180249
:10425000504306EB800003EB0010B0FBF1F0216847
:1042600000F00F002844886070BD00000038014055
:1042700081628285C28500214164222180F842103A
:10428000016921B10168CA6842F48072CA6001689C
:104290004A6942F001024A610068C16841F02001A8
:1042A000C160002070472DE9F843984617460D4637
:1042B0000446089E24E0701C22D0FEF7B1FBA0EB60
:1042C0000800B0421AD8CEB12068C168490717D596
:1042D000802D15D0402D13D00168C94309070FD494
:1042E00001680025406800902046FFF7DCFE0820AA
:1042F000606484F840500120BDE8F8830320FBE7A8
:104300002068006835EA000004D00020B842D2D00E
:104310000020F1E70120F9E70148FFF7A3B9000009
:10432000C00200200148FFF79DB9000008030020EB
:10433000FEE7490050EAC12018BF04204A0D18BF0B
:1043400040F0010040F2FF72B2EB515F08BF40F055
:104350000200012808BF052070470907090E002840
:1043600004DB00F1E02080F80014704700F00F003B
:1043700000F1E02080F8141D704740F20132002067
:104380004FF0E04101F0B8BB024A0020110701F0F4
:10439000B3BB000001FDFFFF10B50446D1E90001E9
:1043A00000F002F8206010BDF8B504460D466A46DC
:1043B00000F0AAFA00987E30009000281EDC00224F
:1043C00013462046294600F027FF17D0002140F66B
:1043D00008004FF0000006462046294600F0D6FEB1
:1043E000044640F6080006EA00014FF0000034F0F1
:1043F000004004BF0220FCF768FF29E00098FF2876
:1044000028DB002108464FF0000000F4400600229F
:1044100013462046294600F0C5FF8CBF0025012524
:104420000220FCF752FF4FF0FF4446B1002D0CBFB5
:104430004FF400004FF48000B04218BF084C042134
:1044400008464FF00000002D04BF84F00040F8BD86
:104450002046F8BD20462946BDE8F84000F096BE4B
:10446000FFFF7F7F10B504460A46D4E900031946D2
:1044700000F076FAC4E9000110BD30380A2801D2F4
:10448000012070470020704710B500F0BDF800F023
:104490006FFC00F037F900F039FD0548002101708C
:1044A00041708170C1700171BDE8104000F010B919
:1044B000380000202DE9FC4700F062F900F066FCAE
:1044C000012000F041FC06464FF4006000F03CFC87
:1044D00080464FF4007000F037FC4A4C4FF0000566
:1044E000E178E07020EA010AA07836EA000009D0FD
:1044F000207850B3002020706570257100F0A2FC78
:1045000000F0E6F8A6702078012701281FD0694640
:1045100001A800F01FFC70B300F08AF9064600F015
:10452000EFFC012800D000208146FEF779FA024610
:10453000D6E9010100F006FDB9F1000F1CD000F032
:10454000DFFC012818D0257108E00120D3E7B8F17D
:10455000000F01D0677001E0607818B100F0B8F882
:10456000BDE8FC87694601A800F0B4F80028F5D042
:10457000DDE900101FE00CE000F0C2FC012805D0CE
:104580002079BAF1000F30D000BB17E0B8F1000F6E
:1045900002D000F057FCD6E7694601A800F05CFCA9
:1045A0000028DDD0019810F0FF4F03D1009911F0E1
:1045B000FF4FD3D0009900F029F8D1E7019810F00F
:1045C000FF4FCBD1009810F0FF4FC7D12771FEF7F6
:1045D00027FA0246D6E9010100F0A6FC694601A8C7
:1045E00000F03AFC0028C3D1BAE70028C0D10198F6
:1045F00010F0FF4FB2D1009810F0FF4FAED12771ED
:10460000ACE700003800002000F04ABA70B50A4656
:1046100005460E49104601F0B9F84FF0FF3101F0A0
:1046200099FA0446294601F0AEF906462046294685
:1046300000F0EEFE00F00CF80446304600F008F8FA
:104640002146BDE8704000F03BBA00004A0C823EB3
:104650002DE9F0474FF07E51DFF85C90DFF85C8089
:10466000174F184D06460C4601F05CF912D33C4634
:104670003846314601F056F901D2204600E0304676
:104680000446404504D24C4502DA0020BDE8F087DC
:10469000AC4201D2204601E084F000400A4901F01A
:1046A00075F80A4900F0B4FE00F0E8FF00B2AC4231
:1046B00000D3404200B2E9E76F12833A6F1283BA27
:1046C000000080BF0000808000703B450000164461
:1046D00000F04EBA70B50A4C06460D46207830B14F
:1046E000FEF79EF96168401AB0F5FA7F01D9002003
:1046F00070BDE068306020692860012070BD000056
:104700000C00002010B5064900204C1E08704870AF
:104710002070FEF785F96060FEF782F9A06010BD99
:104720000D00002038B5144900EB400001EB0010EB
:10473000694600F0F5FC0546009801782C2919D14E
:104740006946401C00F0ECFC009A01E0521C00920B
:1047500011782029FAD00929F8D00D29F6D011783E
:10476000002907D1054CC4E9035001202070FEF751
:1047700057F9606038BD0000880100200C0000205F
:1047800010B5FEF74DF90446002000F025F8012091
:1047900000F022F80B498868201A322811D38C6067
:1047A00000F046F8044608A1D4E90123002000F0F7
:1047B00061FCD4E90123BDE8104003A1012000F011
:1047C00059BC10BD0C000020454E432C256C642CB8
:1047D000256C640D0A000000F8B5054600EB4501A4
:1047E0001148002600EB0117104C16E09DF8000060
:1047F0000A2808D00D280CD0615D2F290CD2C8558D
:10480000491C615509E0605DC6552846FFF78AFFDF
:1048100002E0605D2F2800D366556946284600F007
:1048200041FC0028E2D1F8BD880100200D000020E5
:10483000004870477000002070B5074C054620788E
:1048400038B1FEF7EDF8A168401AA84201D801205E
:1048500070BD002070BD00000000002010B53C219C
:104860000548FEF79BFD3C210448FEF797FDBDE897
:10487000104000F005B80000E801002030020020E0
:1048800008490020096848620749096848620749E1
:10489000074A48808880108050805060906088600F
:1048A00008707047E801002030020020000000205E
:1048B00070000020104810B50068406A0F49096870
:1048C0004A6A0F4C6188A3886080411AD31AA2807B
:1048D000584202B20B4809B20180428043680B443F
:1048E0004360836811431344836004D0FEF798F853
:1048F000A0600120207010BDE801002030020020DF
:10490000000000207000002010B514460022226034
:10491000114A21F000439342A8BF10BD53EA0002A0
:1049200008BF10BDB3F5801FA8BF226807DA362282
:1049300001F0E2F86FF0350221F000432260DFF869
:104940001CC06FF31E510CEB23531A4441F0FF516E
:1049500041F00051226010BD0000F07F02FCFFFF1B
:104960002DE9F04106460C4640F2FF75174635EA40
:1049700014502BD000221346304600F04DFC25D0B9
:104980003A463046214601F0B7F806460C4635EA6D
:10499000145010D000221346304600F03DFC15D1D3
:1049A0000220FCF792FCFFF7EFFC0A46214662F377
:1049B0001E01BDE8F0810220FCF787FCFFF7DDFC5B
:1049C0000A46214662F31E01BDE8F08130462146C9
:1049D000BDE8F081AFF30080012251030148FEF7EA
:1049E0001AB80000001001404FF400510148FEF7D2
:1049F0000AB8000000100140FEF720F8FFF7FAF9AE
:104A0000FFF78CF8FFF7FAF8FFF72CF9FFF760F9DA
:104A1000FFF7B2F9FFF7CCF9FFF7DCFFFFF71EFF56
:104A200000F012FBFFF730FD11A1002000F015FB94
:104A30004FF4FA77124D7E00FDF7F2FF0446286826
:104A4000201A0A2802D32C60FFF734FFFFF732FD4B
:104A50006868201AB842EFD330466C60FFF7ECFE6E
:104A600010B1FFF7C1FFE7E7FFF7B6FFE4E700008B
:104A70006375705F6361722072656164790D0A000D
:104A800058000020B0F5616F02DB40F60F60704700
:104A900010F5616FFBDC014870470000F1F1FFFF8A
:104AA00010B508210548FEF77BFD0C210348FEF7F1
:104AB00077FDBDE8104000F05BB8000078020020F0
:104AC0007CB50C46FFF7DEFF05462046FFF7DAFF10
:104AD00004460020CDE900500823084D9A025110E9
:104AE000284600F00DF80120CDE90040C203810303
:104AF0000C23284600F004F87CBD0000000C0140A7
:104B00002DE9F0418046DDE90650174601221E4698
:104B100002EBE57420B10CB1002404E0012400E0B4
:104B20000CB1012200E000224046FDF774FF94B171
:104B3000002239464046FDF76EFF002D00DA6D4237
:104B40000A49A8B24EB1042E0AD00968082E0AD02C
:104B50000864BDE8F0810122EBE709684863F8E7E3
:104B600009688863F5E7C863F3E70000780200206E
:104B7000054800210268D163006801640A464FF4C9
:104B800070410248FDF747BF78020020000C014049
:104B9000027822B14088084201D1012070470020EC
:104BA00070470000064A10B553680649064C09686C
:104BB000B1FBF4F141435068C01A8842FBD310BDE9
:104BC000001000E06C00002040420F000F4810B5BC
:104BD000016841F0807101600D48016841F00101F8
:104BE0000160002141600B4C012240212046FDF76D
:104BF00012FF012280212046FDF70DFF20460122F1
:104C0000BDE810402021FDF706BF0000FCED00E0EC
:104C1000001000E000080140FEB5204F04460022CD
:104C200040213846FDF7F7FE1020FFF7BBFF0120BB
:104C300000F036F88DF80000422000F031F88DF8D1
:104C4000010002256E46002000F02AF870556D1C08
:104C5000EDB2092DF7D3012240213846FDF7DBFEE6
:104C60009DF801006070412815D0732813D0792871
:104C700011D000202070BDF8031061809DF8051050
:104C800021719DF8061061719DF80710A1719DF8C2
:104C90000810E171FEBD0120ECE7000000080140B2
:104CA0002DE9F0470026184F804634464FF00109A1
:104CB00009FA04F515EA080F01D0012200E00022EC
:104CC00020213846FDF7A7FE002280213846FDF757
:104CD000A2FE1020FFF766FF10213846FDF78EFE7A
:104CE000012801D1E8B20643012280213846FDF7B0
:104CF00092FE1020FFF756FF641CE4B2082CD7D3B5
:104D00003046BDE8F08700000008014010B580384B
:104D10000C460C2804DD0C3800F0ECFC084906E0D9
:104D200010F10C0F06DA0C3000F0E4FC054900F03D
:104D3000E3FB00E00020002C01D080F0004010BD1B
:104D40000000E6420000E84201460148FFF720BFAC
:104D500030000020054A13782BB193680360D068B7
:104D600008600120704700207047000020000020EC
:104D700010B5FFF72BFF044C00202070A060E0600E
:104D8000FDF74EFE606010BD2000002070B5FDF7FD
:104D900047FE174C6168411A0A2921D3606004F16B
:104DA0001000FFF739FF04F11005287820B168786A
:104DB000732816D0792814D00020207098B1E87993
:104DC0000121FFF7A3FF0B4900F0E0FC064628791C
:104DD0000121FFF79BFF084900F0D8FCC4E90260FD
:104DE00070BD0120E9E70020A060E06070BD000018
:104DF000200000209A99193F00002040C217401A55
:104E000072EBE17200D5404270470000024AC2E9ED
:104E100001010020506170474000002010B5074C90
:104E2000074900F0B3FC214600F066FB4FF07C51CF
:104E300000F0EEFABDE8104000F03CBCBA1A513E5A
:104E400000A0F0440348002101704170817041616D
:104E500070470000400000202DE9F0470746224837
:104E60000E460178012902D00020BDE8F087817844
:104E70004FF0000919B14846C7F8009030E080466D
:104E800040781A4900EB400001EB8004204600F016
:104E9000BBF80546207860B1154800F0BDF8C7F8AA
:104EA0000090D8F81410691A814214D84FF07C5140
:104EB00013E01048FFF7B2FFD8F81410691A8142C6
:104EC00001D80D4900E00D49A06800F05FFC386092
:104ED000C6F8009005E04FF07E51A06800F056FC47
:104EE00030600120C1E7000040000020DC5B0008CA
:104EF000920A863ECDCC4C3E9A99193E9A99993E9B
:104F0000014800787047000040000020054800215B
:104F100001704170817041608160C16001614161D7
:104F2000704700004000002010B5054C002363705E
:104F3000A370E260FFF76AFF0120207010BD00003F
:104F4000400000202DE9F05F2D4C174602462078E6
:104F50000D4601281CD1E0684EF66021381A4FF04A
:104F6000030A884248D22046A17840784FF00009D1
:104F70004FF4FA7BA1B12169791A594508D3401C35
:104F8000C0B284F802906070052803D3022020701C
:104F9000BDE8F09F2946BDE8F05F1046FFF736BF39
:104FA000184900EB400001EB800810466168FFF7EC
:104FB00025FF06462846A168FFF720FF0546711920
:104FC00049EB090040084FEA31006061404600F0BB
:104FD0001BF86169884203D80120A0702761D7E7D8
:104FE000AE4201D9304600E0284600D83546584543
:104FF000CED3B0EB850FCBD984F800A0C8E7000072
:1050000040000020DC5B00080178406809B100F036
:1050100003B8FFF703BF000010B5054900F0B6FB69
:105020004FF0FF3100F096FDBDE81040FFF7F6BEEF
:105030004A0C823E012801D0014870470148704760
:10504000C00200200803002010B5002000F04EF838
:10505000BDE81040012000F049B870B505460C4687
:105060000846FBF721F982B221462846BDE8704088
:1050700000F04AB80FB4802110B5A0B0044624ABAC
:105080006846239AFBF7F6F8002807DD802800DB46
:105090007F2082B26946204600F036F820B010BC6E
:1050A0005DF814FB10B50C4600F016F8B0F882104D
:1050B000B0F88420914201D1002010BD30F8842F37
:1050C000A0F18301515C21700188491C01F07F012E
:1050D0000180012010BD0000012801D00248704766
:1050E00001488630704700007C00002070B50546FE
:1050F000FFF7F2FF04462846FFF79CFF2146BDE874
:1051000070400122FEF782BC70B514460D46FFF7D1
:1051100091FF22462946BDE870406423FEF7ACBCEF
:1051200008B50A460021009101466846FBF7C0FB1E
:10513000009808BD10B500290AD00878002807D0CB
:1051400005487844FCF730FC002801D0002010BD51
:105150000248784410BD00002E0C0000260C000010
:1051600010B500290AD00878002807D005487844EF
:10517000FCF71AFC002801D0002010BD024878443A
:1051800010BD00001E0C0000160C000021F00042B3
:10519000A2F16052B2F5801F01F0004328BFD2F1A6
:1051A0007F6C0BD95FEA001C43EAC20242EB5070ED
:1051B00018BF704728BF20F001007047B2F5801F6C
:1051C000BCBF184670474FEA410C1CF5001F02D2C5
:1051D000084600F0A2BB70B500F096F80000008908
:1051E000FFF7F6BF4FF00040A0F5800070470000C9
:1051F00002494FF0000000F04DBC00BF0000F87FF6
:10520000491058BFC1F140415B1058BFC3F1404342
:105210008B42EFF30080704751EA030C17D41CF562
:10522000801F58BFBCF5801F00F10680994218BF4F
:10523000704708BF9042704707D711F5801F58BFCD
:1052400013F5801F19D499427047894270471CF5A5
:10525000801F08D5BCF5801FF7D58B4218BF70475B
:1052600008BF824270474FF4001C1CEB410F38BF4F
:105270001CEB430F01D28B42704770B500F044F82D
:10528000922449004FF000514FF08053FFF7B8BF10
:1052900051EA030C17D41CF5801F58BFBCF5801FC2
:1052A00000F10680994218BF704708BF90427047CE
:1052B00007D711F5801F58BF13F5801F19D49942E5
:1052C0007047894270471CF5801F08D5BCF5801FC8
:1052D000F7D58B4218BF704708BF824270474FF422
:1052E000001C1CEB410F38BF1CEB430F01D28B425B
:1052F000704770B500F008F8922449004FF0005153
:105300004FF08053FFF77CBF0EF1020E2EF0030E1C
:105310005EF8046B364205D4012A43EB030515F50C
:10532000001F12D8012841EB010C1CF5001F0CD8FE
:105330000ED14FEAD17C15F5001F0CEB4C0C0CF193
:10534000020C08BF4CEBD37C04E04FF0080C01E0EA
:105350004FEAD37C0CEB4C0526FA05F606F007065F
:10536000B6F1040C06D20EEB860CBDE870404CF092
:10537000010C6047DFE80CF0090B02024FF000411E
:105380004FF00000A1F5002170BD1946104601281C
:1053900051EB010418BFD4F5001484BF002001F0C4
:1053A000004170BD53EA010C17D41CF5801F58BF93
:1053B000BCF5801F00F106808B4218BF704708BF04
:1053C0008242704707D713F5801F58BF11F5801F21
:1053D00019D48B4270479B4270471CF5801F08D53B
:1053E000BCF5801FF7D5994218BF704708BF90429F
:1053F00070474FF4001C1CEB430F38BF1CEB410FF0
:1054000001D2994270470FB40CBC03BCFFF771BFC7
:1054100090EA010F48BF81F0004100F1C682421AB4
:105420003CBF801A89184FEAD0524FF07F4C1CEADB
:10543000410FA2EBD15318BF9CEA026F00F03B80F2
:105440004FF0004C4CEA00204CEA012121FA03FC09
:1054500010EB0C0C1ED202F1FF325FEA1C2040EB75
:10546000C25038BF70471CF07F0F4FEA400C18BF86
:10547000BCF17F4F38BF7047C3F12003994008BF8C
:1054800020F00100BCF17F4F38BF7047A0F1C04051
:1054900000F043BA4FEA3C00000A40EBC25028BF7C
:1054A0001CF0FF0F4FEA400CE6D018BFBCF17F4F55
:1054B00038BF7047EAE79CEA026F05D010EA5C0F3C
:1054C00008BF00F00040704710B500F0E0F900BFE1
:1054D00064FBBE3E014800F0DDBA00BF0000C07FA3
:1054E000401058BFC0F14040491058BFC1F1404181
:1054F0008142EFF3008070474FF47F0C1CEAD0121A
:105500001EBF1CEAD11392EA0C0F93EA0C0F00F0B5
:10551000858090EA010F48BF42F4807240F4000C8D
:1055200041F400002CF07F4120F07F4000B5814223
:10553000A2EB03020FF2081CACEB504EC0F10000CE
:105540009EF800E04FEA4E0E00FB0EFC38BF49000B
:105550004FEA2C1C02F5FA020CFB0EF34FEACE1EAA
:105560004FEA112C4FEAC1210EEB635E42EB22425F
:105570000EFB0CFC4FEA1C5300FB03114FEA112CED
:105580004FEA01310EFB0CFC4FEADC4C00FB0C1126
:10559000C14228BF09184CEB03335DF804EB10EB54
:1055A000410143EBC250B2F57C0F38BF704729D59B
:1055B00012F0F00F1CBF00F1C04000F00040704737
:1055C000008182838485868788898B8C8D8E8F91DC
:1055D0009293959697999A9C9D9FA0A2A3A5A7A800
:1055E000AAACAEB0B2B3B5B7B9BCBEC0C2C5C7C92C
:1055F000CCCED1D4D7D9DCDFE2E6E9ECF0F3F7FA90
:10560000FE0000004FEA400C0CF1807CBCF17E4FA4
:1056100028BF7047B0F1C04000F07FB990EA010F99
:105620000CEAD11348BF42F48072624538BF63452B
:1056300007D213F47F0F16D080EA010000F000407B
:10564000704710B500F023F9097EFC3E00F005B864
:1056500080EA010000F00040704780EA010000F09D
:10566000004000F05AB912F47F0F04BF024870479F
:1056700080EA010000F051B90000C07F41000B0E2C
:10568000D3F19E0208D950F400034FEA032323FA12
:1056900002F048BF4042704710B500F0F8F800BF74
:1056A00049922480002070476FF0004282EA200077
:1056B00070470000C10DD1F19E0206DB4FEA0023C6
:1056C00043F0004323FA02F07047004207D54FEA47
:1056D0004001B1F1FE4F02D24FF00000704710B50B
:1056E00000F0D5F849922480002070476FEA20002E
:1056F0007047000010F0004148BF4042B0FA80F30C
:1057000010FA03F2C3F19D030BD051EAC35101EB30
:105710001220530638BF704700F1010008BF20F087
:105720000100704750EA010C00F113801CF5000FD6
:1057300058BFBCF5000F01D48842704707D710F559
:10574000000F58BF11F5000F15D4884270478942E9
:1057500070471CF5000F04D5BCF5000FF7D581424A
:1057600070474FF0807C1CEB400F38BF1CEB410FA3
:1057700001D28142704710B500F089F892244900A7
:105780004FF000504FF08051FFF7AABE4FF47F0C4E
:105790001CEAD0121EBF1CEAD11392EA0C0F93EA46
:1057A0000C0F00F0478090EA010F48BF42F480726E
:1057B0004FF0004C4CEA00204CEA012102EB0302BE
:1057C000A0FB0113A2F50002002918BF43F001035A
:1057D0005B0028BF4FEA330342EB22425FEA132CFF
:1057E0004CEBC2502EBFBCEB436FB2F57C0F704741
:1057F0004FEA036CBCF1004F08BF20F00100B2F586
:105800007C0F38BF70470BD582F0FF0212F5803F46
:10581000C8BF704700F1C040D8BF00F000407047DB
:1058200000F5000C5FEA4C0C48BF7047B0F1C04077
:1058300000F073B890EA010F0CEAD11348BF42F4AC
:105840008072624538BF634504D280EA010000F0EF
:105850000040704710B500F01AF800BF8900013E03
:1058600000F007B800F009B85FEA410C5FEA1C6C71
:1058700008D080EA010000F050B85FEA400C5FEA0F
:105880001C6CF6D14FF00040A0F5800070470EF17F
:10589000020E2EF0030E5EF8044B244204D44FEAAD
:1058A0004102B2F17F4F11D84FEA4003B3F17F4F6D
:1058B0000CD80ED14FEAD07CB2F17F4F0CEB4C0CE0
:1058C0000CF1020C08BF4CEBD17C04E04FF0080C4B
:1058D00001E04FEAD17C0CEB4C0324FA03F404F012
:1058E0000704B4F1040C06D20EEB840CBDE81040A2
:1058F0004CF0010C6047DFE80CF0070802024FF0A3
:105900000040A0F5800010BD0846420018BFD2F14B
:10591000807288BF00F0004010BDFF2141EAD050E6
:10592000C005704751EA000C00F113801CF5000F10
:1059300058BFBCF5000F01D48142704707D711F55D
:10594000000F58BF10F5000F15D4814270478942EF
:1059500070471CF5000F04D5BCF5000FF7D5884241
:1059600070474FF0807C1CEB410F38BF1CEB400FA1
:1059700001D28842704780EA010081EA000180EA92
:105980000100FFF7F8BE80F0004090EA010F7FF5BC
:1059900046AD81F0004100F008B8000090EA010F28
:1059A00048BF81F000413FF53AAD421A04D882F079
:1059B0000042A0EB020011444FEAD0524FF07F4C5E
:1059C0001CEA410FA2EBD15318BF9CEA026F4AD0E8
:1059D0004FF0004C4CEA00204CEA012121FA03FC74
:1059E000B0EB0C0C0FD412F0FE0F36D05FEA4C0077
:1059F0001DD5001240EBC25038BF70471CF03F0F5E
:105A000018BF70470BE0A2F101025FEA1C2040EBD7
:105A1000C25038BF70471CF07F0F18BF7047C3F1EA
:105A20002003994014BF401E20F0010070478008F9
:105A30004FEA122308BF7047B0FA80FCA2EB0C02B9
:105A4000CCF1280C60FA0CF093EA122F04BF00EBA3
:105A5000C25070474FEAC3707047130A5FEADC1008
:105A600008BF7047F6E79CEA026F04D010EA5C0FAB
:105A700008BF0020704710B5FFF709FF40DFF63E72
:105A800081F0004070474FF000007047FBF794B87A
:105A9000FBF7C8B90CF00F03092B08BF082000F072
:105AA00085800A2B0BD0082B18BF704708BF1CF04D
:105AB000400F0AD04FF000004FF0000170471CF07B
:105AC000400F18BF4FF0004070471CF0100F08D077
:105AD00020F0704300F07F4242EAD3014FEA437066
